{
  "abi": [
    {
      "inputs": [
        {
          "internalType": "address",
          "name": "marketPlaceAddress",
          "type": "address"
        }
      ],
      "stateMutability": "nonpayable",
      "type": "constructor"
    },
    {
      "anonymous": false,
      "inputs": [
        {
          "indexed": true,
          "internalType": "address",
          "name": "owner",
          "type": "address"
        },
        {
          "indexed": true,
          "internalType": "address",
          "name": "approved",
          "type": "address"
        },
        {
          "indexed": true,
          "internalType": "uint256",
          "name": "tokenId",
          "type": "uint256"
        }
      ],
      "name": "Approval",
      "type": "event"
    },
    {
      "anonymous": false,
      "inputs": [
        {
          "indexed": true,
          "internalType": "address",
          "name": "owner",
          "type": "address"
        },
        {
          "indexed": true,
          "internalType": "address",
          "name": "operator",
          "type": "address"
        },
        {
          "indexed": false,
          "internalType": "bool",
          "name": "approved",
          "type": "bool"
        }
      ],
      "name": "ApprovalForAll",
      "type": "event"
    },
    {
      "anonymous": false,
      "inputs": [
        {
          "indexed": true,
          "internalType": "address",
          "name": "from",
          "type": "address"
        },
        {
          "indexed": true,
          "internalType": "address",
          "name": "to",
          "type": "address"
        },
        {
          "indexed": true,
          "internalType": "uint256",
          "name": "tokenId",
          "type": "uint256"
        }
      ],
      "name": "Transfer",
      "type": "event"
    },
    {
      "inputs": [
        {
          "internalType": "address",
          "name": "to",
          "type": "address"
        },
        {
          "internalType": "uint256",
          "name": "tokenId",
          "type": "uint256"
        }
      ],
      "name": "approve",
      "outputs": [],
      "stateMutability": "nonpayable",
      "type": "function"
    },
    {
      "inputs": [
        {
          "internalType": "address",
          "name": "owner",
          "type": "address"
        }
      ],
      "name": "balanceOf",
      "outputs": [
        {
          "internalType": "uint256",
          "name": "",
          "type": "uint256"
        }
      ],
      "stateMutability": "view",
      "type": "function"
    },
    {
      "inputs": [
        {
          "internalType": "string",
          "name": "tokenURI",
          "type": "string"
        }
      ],
      "name": "createToken",
      "outputs": [
        {
          "internalType": "uint256",
          "name": "",
          "type": "uint256"
        }
      ],
      "stateMutability": "payable",
      "type": "function"
    },
    {
      "inputs": [
        {
          "internalType": "uint256",
          "name": "tokenId",
          "type": "uint256"
        }
      ],
      "name": "getApproved",
      "outputs": [
        {
          "internalType": "address",
          "name": "",
          "type": "address"
        }
      ],
      "stateMutability": "view",
      "type": "function"
    },
    {
      "inputs": [
        {
          "internalType": "address",
          "name": "owner",
          "type": "address"
        }
      ],
      "name": "getBalanceOfToken",
      "outputs": [
        {
          "internalType": "uint256",
          "name": "",
          "type": "uint256"
        }
      ],
      "stateMutability": "view",
      "type": "function"
    },
    {
      "inputs": [
        {
          "internalType": "address",
          "name": "owner",
          "type": "address"
        },
        {
          "internalType": "address",
          "name": "operator",
          "type": "address"
        }
      ],
      "name": "isApprovedForAll",
      "outputs": [
        {
          "internalType": "bool",
          "name": "",
          "type": "bool"
        }
      ],
      "stateMutability": "view",
      "type": "function"
    },
    {
      "inputs": [],
      "name": "name",
      "outputs": [
        {
          "internalType": "string",
          "name": "",
          "type": "string"
        }
      ],
      "stateMutability": "view",
      "type": "function"
    },
    {
      "inputs": [
        {
          "internalType": "uint256",
          "name": "tokenId",
          "type": "uint256"
        }
      ],
      "name": "ownerOf",
      "outputs": [
        {
          "internalType": "address",
          "name": "",
          "type": "address"
        }
      ],
      "stateMutability": "view",
      "type": "function"
    },
    {
      "inputs": [
        {
          "internalType": "address",
          "name": "from",
          "type": "address"
        },
        {
          "internalType": "address",
          "name": "to",
          "type": "address"
        },
        {
          "internalType": "uint256",
          "name": "tokenId",
          "type": "uint256"
        }
      ],
      "name": "safeTransferFrom",
      "outputs": [],
      "stateMutability": "nonpayable",
      "type": "function"
    },
    {
      "inputs": [
        {
          "internalType": "address",
          "name": "from",
          "type": "address"
        },
        {
          "internalType": "address",
          "name": "to",
          "type": "address"
        },
        {
          "internalType": "uint256",
          "name": "tokenId",
          "type": "uint256"
        },
        {
          "internalType": "bytes",
          "name": "data",
          "type": "bytes"
        }
      ],
      "name": "safeTransferFrom",
      "outputs": [],
      "stateMutability": "nonpayable",
      "type": "function"
    },
    {
      "inputs": [
        {
          "internalType": "address",
          "name": "operator",
          "type": "address"
        },
        {
          "internalType": "bool",
          "name": "approved",
          "type": "bool"
        }
      ],
      "name": "setApprovalForAll",
      "outputs": [],
      "stateMutability": "nonpayable",
      "type": "function"
    },
    {
      "inputs": [
        {
          "internalType": "bytes4",
          "name": "interfaceId",
          "type": "bytes4"
        }
      ],
      "name": "supportsInterface",
      "outputs": [
        {
          "internalType": "bool",
          "name": "",
          "type": "bool"
        }
      ],
      "stateMutability": "view",
      "type": "function"
    },
    {
      "inputs": [],
      "name": "symbol",
      "outputs": [
        {
          "internalType": "string",
          "name": "",
          "type": "string"
        }
      ],
      "stateMutability": "view",
      "type": "function"
    },
    {
      "inputs": [
        {
          "internalType": "uint256",
          "name": "tokenId",
          "type": "uint256"
        }
      ],
      "name": "tokenURI",
      "outputs": [
        {
          "internalType": "string",
          "name": "",
          "type": "string"
        }
      ],
      "stateMutability": "view",
      "type": "function"
    },
    {
      "inputs": [
        {
          "internalType": "address",
          "name": "from",
          "type": "address"
        },
        {
          "internalType": "address",
          "name": "to",
          "type": "address"
        },
        {
          "internalType": "uint256",
          "name": "tokenId",
          "type": "uint256"
        }
      ],
      "name": "transferFrom",
      "outputs": [],
      "stateMutability": "nonpayable",
      "type": "function"
    }
  ],
  "bytecode": {
    "object": "0x60806040523480156200001157600080fd5b506040516200199b3803806200199b83398101604081905262000034916200016a565b604080518082018252600d81526c31b7b232abb434bd3832b932b960991b60208083019182528351808501909452600384526221aba960e91b9084015281519192916200008491600091620000c4565b5080516200009a906001906020840190620000c4565b5050600980546001600160a01b0319166001600160a01b03939093169290921790915550620001d9565b828054620000d2906200019c565b90600052602060002090601f016020900481019282620000f6576000855562000141565b82601f106200011157805160ff191683800117855562000141565b8280016001018555821562000141579182015b828111156200014157825182559160200191906001019062000124565b506200014f92915062000153565b5090565b5b808211156200014f576000815560010162000154565b6000602082840312156200017d57600080fd5b81516001600160a01b03811681146200019557600080fd5b9392505050565b600181811c90821680620001b157607f821691505b60208210811415620001d357634e487b7160e01b600052602260045260246000fd5b50919050565b6117b280620001e96000396000f3fe6080604052600436106100e85760003560e01c80636352211e1161008a578063a22cb46511610059578063a22cb46514610274578063b88d4fde14610294578063c87b56dd146102b4578063e985e9c5146102d457600080fd5b80636352211e146101ff57806370a082311461021f57806383786f8c1461023f57806395d89b411461025f57600080fd5b8063095ea7b3116100c6578063095ea7b31461017c57806323b872dd1461019e57806342842e0e146101be57806345576f94146101de57600080fd5b806301ffc9a7146100ed57806306fdde0314610122578063081812fc14610144575b600080fd5b3480156100f957600080fd5b5061010d610108366004611263565b61031d565b60405190151581526020015b60405180910390f35b34801561012e57600080fd5b5061013761036f565b60405161011991906112d8565b34801561015057600080fd5b5061016461015f3660046112eb565b610401565b6040516001600160a01b039091168152602001610119565b34801561018857600080fd5b5061019c610197366004611320565b61048e565b005b3480156101aa57600080fd5b5061019c6101b936600461134a565b6105a4565b3480156101ca57600080fd5b5061019c6101d936600461134a565b6105d5565b6101f16101ec366004611412565b6105f0565b604051908152602001610119565b34801561020b57600080fd5b5061016461021a3660046112eb565b610638565b34801561022b57600080fd5b506101f161023a36600461145b565b6106af565b34801561024b57600080fd5b506101f161025a36600461145b565b610735565b34801561026b57600080fd5b50610137610740565b34801561028057600080fd5b5061019c61028f366004611476565b61074f565b3480156102a057600080fd5b5061019c6102af3660046114b2565b61075e565b3480156102c057600080fd5b506101376102cf3660046112eb565b610796565b3480156102e057600080fd5b5061010d6102ef36600461152e565b6001600160a01b03918216600090815260056020908152604080832093909416825291909152205460ff1690565b60006001600160e01b031982166380ac58cd60e01b148061034e57506001600160e01b03198216635b5e139f60e01b145b8061036957506301ffc9a760e01b6001600160e01b03198316145b92915050565b60606000805461037e90611561565b80601f01602080910402602001604051908101604052809291908181526020018280546103aa90611561565b80156103f75780601f106103cc576101008083540402835291602001916103f7565b820191906000526020600020905b8154815290600101906020018083116103da57829003601f168201915b5050505050905090565b600061040c8261090d565b6104725760405162461bcd60e51b815260206004820152602c60248201527f4552433732313a20617070726f76656420717565727920666f72206e6f6e657860448201526b34b9ba32b73a103a37b5b2b760a11b60648201526084015b60405180910390fd5b506000908152600460205260409020546001600160a01b031690565b600061049982610638565b9050806001600160a01b0316836001600160a01b031614156105075760405162461bcd60e51b815260206004820152602160248201527f4552433732313a20617070726f76616c20746f2063757272656e74206f776e656044820152603960f91b6064820152608401610469565b336001600160a01b0382161480610523575061052381336102ef565b6105955760405162461bcd60e51b815260206004820152603860248201527f4552433732313a20617070726f76652063616c6c6572206973206e6f74206f7760448201527f6e6572206e6f7220617070726f76656420666f7220616c6c00000000000000006064820152608401610469565b61059f838361092a565b505050565b6105ae3382610998565b6105ca5760405162461bcd60e51b81526004016104699061159c565b61059f838383610a81565b61059f8383836040518060200160405280600081525061075e565b6000610600600780546001019055565b600061060b60075490565b90506106173382610c1d565b6106218184610d50565b600954610369906001600160a01b0316600161074f565b6000818152600260205260408120546001600160a01b0316806103695760405162461bcd60e51b815260206004820152602960248201527f4552433732313a206f776e657220717565727920666f72206e6f6e657869737460448201526832b73a103a37b5b2b760b91b6064820152608401610469565b60006001600160a01b0382166107195760405162461bcd60e51b815260206004820152602960248201527f4552433732313a2061646472657373207a65726f206973206e6f7420612076616044820152683634b21037bbb732b960b91b6064820152608401610469565b506001600160a01b031660009081526003602052604090205490565b6000610369826106af565b60606001805461037e90611561565b61075a338383610ddb565b5050565b6107683383610998565b6107845760405162461bcd60e51b81526004016104699061159c565b61079084848484610eaa565b50505050565b60606107a18261090d565b6108075760405162461bcd60e51b815260206004820152603160248201527f45524337323155524953746f726167653a2055524920717565727920666f72206044820152703737b732bc34b9ba32b73a103a37b5b2b760791b6064820152608401610469565b6000828152600660205260408120805461082090611561565b80601f016020809104026020016040519081016040528092919081815260200182805461084c90611561565b80156108995780601f1061086e57610100808354040283529160200191610899565b820191906000526020600020905b81548152906001019060200180831161087c57829003601f168201915b5050505050905060006108b760408051602081019091526000815290565b90508051600014156108ca575092915050565b8151156108fc5780826040516020016108e49291906115ed565b60405160208183030381529060405292505050919050565b61090584610edd565b949350505050565b6000908152600260205260409020546001600160a01b0316151590565b600081815260046020526040902080546001600160a01b0319166001600160a01b038416908117909155819061095f82610638565b6001600160a01b03167f8c5be1e5ebec7d5bd14f71427d1e84f3dd0314c0f7b2291e5b200ac8c7c3b92560405160405180910390a45050565b60006109a38261090d565b610a045760405162461bcd60e51b815260206004820152602c60248201527f4552433732313a206f70657261746f7220717565727920666f72206e6f6e657860448201526b34b9ba32b73a103a37b5b2b760a11b6064820152608401610469565b6000610a0f83610638565b9050806001600160a01b0316846001600160a01b03161480610a5657506001600160a01b0380821660009081526005602090815260408083209388168352929052205460ff165b806109055750836001600160a01b0316610a6f84610401565b6001600160a01b031614949350505050565b826001600160a01b0316610a9482610638565b6001600160a01b031614610af85760405162461bcd60e51b815260206004820152602560248201527f4552433732313a207472616e736665722066726f6d20696e636f72726563742060448201526437bbb732b960d91b6064820152608401610469565b6001600160a01b038216610b5a5760405162461bcd60e51b8152602060048201526024808201527f4552433732313a207472616e7366657220746f20746865207a65726f206164646044820152637265737360e01b6064820152608401610469565b610b6560008261092a565b6001600160a01b0383166000908152600360205260408120805460019290610b8e908490611632565b90915550506001600160a01b0382166000908152600360205260408120805460019290610bbc908490611649565b909155505060008181526002602052604080822080546001600160a01b0319166001600160a01b0386811691821790925591518493918716917fddf252ad1be2c89b69c2b068fc378daa952ba7f163c4a11628f55a4df523b3ef91a4505050565b6001600160a01b038216610c735760405162461bcd60e51b815260206004820181905260248201527f4552433732313a206d696e7420746f20746865207a65726f20616464726573736044820152606401610469565b610c7c8161090d565b15610cc95760405162461bcd60e51b815260206004820152601c60248201527f4552433732313a20746f6b656e20616c7265616479206d696e746564000000006044820152606401610469565b6001600160a01b0382166000908152600360205260408120805460019290610cf2908490611649565b909155505060008181526002602052604080822080546001600160a01b0319166001600160a01b03861690811790915590518392907fddf252ad1be2c89b69c2b068fc378daa952ba7f163c4a11628f55a4df523b3ef908290a45050565b610d598261090d565b610dbc5760405162461bcd60e51b815260206004820152602e60248201527f45524337323155524953746f726167653a2055524920736574206f66206e6f6e60448201526d32bc34b9ba32b73a103a37b5b2b760911b6064820152608401610469565b6000828152600660209081526040909120825161059f928401906111b1565b816001600160a01b0316836001600160a01b03161415610e3d5760405162461bcd60e51b815260206004820152601960248201527f4552433732313a20617070726f766520746f2063616c6c6572000000000000006044820152606401610469565b6001600160a01b03838116600081815260056020908152604080832094871680845294825291829020805460ff191686151590811790915591519182527f17307eab39ab6107e8899845ad3d59bd9653f200f220920489ca2b5937696c31910160405180910390a3505050565b610eb5848484610a81565b610ec184848484610fb5565b6107905760405162461bcd60e51b815260040161046990611661565b6060610ee88261090d565b610f4c5760405162461bcd60e51b815260206004820152602f60248201527f4552433732314d657461646174613a2055524920717565727920666f72206e6f60448201526e3732bc34b9ba32b73a103a37b5b2b760891b6064820152608401610469565b6000610f6360408051602081019091526000815290565b90506000815111610f835760405180602001604052806000815250610fae565b80610f8d846110b3565b604051602001610f9e9291906115ed565b6040516020818303038152906040525b9392505050565b60006001600160a01b0384163b156110a857604051630a85bd0160e11b81526001600160a01b0385169063150b7a0290610ff99033908990889088906004016116b3565b6020604051808303816000875af1925050508015611034575060408051601f3d908101601f19168201909252611031918101906116f0565b60015b61108e573d808015611062576040519150601f19603f3d011682016040523d82523d6000602084013e611067565b606091505b5080516110865760405162461bcd60e51b815260040161046990611661565b805181602001fd5b6001600160e01b031916630a85bd0160e11b149050610905565b506001949350505050565b6060816110d75750506040805180820190915260018152600360fc1b602082015290565b8160005b811561110157806110eb8161170d565b91506110fa9050600a8361173e565b91506110db565b60008167ffffffffffffffff81111561111c5761111c611386565b6040519080825280601f01601f191660200182016040528015611146576020820181803683370190505b5090505b84156109055761115b600183611632565b9150611168600a86611752565b611173906030611649565b60f81b81838151811061118857611188611766565b60200101906001600160f81b031916908160001a9053506111aa600a8661173e565b945061114a565b8280546111bd90611561565b90600052602060002090601f0160209004810192826111df5760008555611225565b82601f106111f857805160ff1916838001178555611225565b82800160010185558215611225579182015b8281111561122557825182559160200191906001019061120a565b50611231929150611235565b5090565b5b808211156112315760008155600101611236565b6001600160e01b03198116811461126057600080fd5b50565b60006020828403121561127557600080fd5b8135610fae8161124a565b60005b8381101561129b578181015183820152602001611283565b838111156107905750506000910152565b600081518084526112c4816020860160208601611280565b601f01601f19169290920160200192915050565b602081526000610fae60208301846112ac565b6000602082840312156112fd57600080fd5b5035919050565b80356001600160a01b038116811461131b57600080fd5b919050565b6000806040838503121561133357600080fd5b61133c83611304565b946020939093013593505050565b60008060006060848603121561135f57600080fd5b61136884611304565b925061137660208501611304565b9150604084013590509250925092565b634e487b7160e01b600052604160045260246000fd5b600067ffffffffffffffff808411156113b7576113b7611386565b604051601f8501601f19908116603f011681019082821181831017156113df576113df611386565b816040528093508581528686860111156113f857600080fd5b858560208301376000602087830101525050509392505050565b60006020828403121561142457600080fd5b813567ffffffffffffffff81111561143b57600080fd5b8201601f8101841361144c57600080fd5b6109058482356020840161139c565b60006020828403121561146d57600080fd5b610fae82611304565b6000806040838503121561148957600080fd5b61149283611304565b9150602083013580151581146114a757600080fd5b809150509250929050565b600080600080608085870312156114c857600080fd5b6114d185611304565b93506114df60208601611304565b925060408501359150606085013567ffffffffffffffff81111561150257600080fd5b8501601f8101871361151357600080fd5b6115228782356020840161139c565b91505092959194509250565b6000806040838503121561154157600080fd5b61154a83611304565b915061155860208401611304565b90509250929050565b600181811c9082168061157557607f821691505b6020821081141561159657634e487b7160e01b600052602260045260246000fd5b50919050565b60208082526031908201527f4552433732313a207472616e736665722063616c6c6572206973206e6f74206f6040820152701ddb995c881b9bdc88185c1c1c9bdd9959607a1b606082015260800190565b600083516115ff818460208801611280565b835190830190611613818360208801611280565b01949350505050565b634e487b7160e01b600052601160045260246000fd5b6000828210156116445761164461161c565b500390565b6000821982111561165c5761165c61161c565b500190565b60208082526032908201527f4552433732313a207472616e7366657220746f206e6f6e20455243373231526560408201527131b2b4bb32b91034b6b83632b6b2b73a32b960711b606082015260800190565b6001600160a01b03858116825284166020820152604081018390526080606082018190526000906116e6908301846112ac565b9695505050505050565b60006020828403121561170257600080fd5b8151610fae8161124a565b60006000198214156117215761172161161c565b5060010190565b634e487b7160e01b600052601260045260246000fd5b60008261174d5761174d611728565b500490565b60008261176157611761611728565b500690565b634e487b7160e01b600052603260045260246000fdfea264697066735822122089e49f10848ca6aac3888210513e578c28ad9efb5f2ee6b7ae2e1565e69e6f0364736f6c634300080c0033",
    "linkReferences": {}
  }
}