{
  "abi": [
    {
      "inputs": [],
      "stateMutability": "nonpayable",
      "type": "constructor"
    },
    {
      "inputs": [],
      "name": "OnlyOwnerCanUpDatePrice",
      "type": "error"
    },
    {
      "inputs": [],
      "name": "notAskingPrice",
      "type": "error"
    },
    {
      "inputs": [],
      "name": "priceMustBeEqualToListingPrice",
      "type": "error"
    },
    {
      "inputs": [],
      "name": "priceMustBeGreaterThanOneGwei",
      "type": "error"
    },
    {
      "inputs": [],
      "name": "priceMustEqualListingPrice",
      "type": "error"
    },
    {
      "anonymous": false,
      "inputs": [
        {
          "indexed": true,
          "internalType": "uint256",
          "name": "itemId",
          "type": "uint256"
        },
        {
          "indexed": true,
          "internalType": "address",
          "name": "nftContract",
          "type": "address"
        },
        {
          "indexed": true,
          "internalType": "uint256",
          "name": "tokenId",
          "type": "uint256"
        },
        {
          "indexed": false,
          "internalType": "address",
          "name": "seller",
          "type": "address"
        },
        {
          "indexed": false,
          "internalType": "address",
          "name": "owner",
          "type": "address"
        },
        {
          "indexed": false,
          "internalType": "uint256",
          "name": "price",
          "type": "uint256"
        },
        {
          "indexed": false,
          "internalType": "bool",
          "name": "sold",
          "type": "bool"
        }
      ],
      "name": "MarketItemCreated",
      "type": "event"
    },
    {
      "inputs": [
        {
          "internalType": "address",
          "name": "nftContract",
          "type": "address"
        },
        {
          "internalType": "uint256",
          "name": "tokenId",
          "type": "uint256"
        },
        {
          "internalType": "uint256",
          "name": "price",
          "type": "uint256"
        }
      ],
      "name": "createMarketItem",
      "outputs": [],
      "stateMutability": "payable",
      "type": "function"
    },
    {
      "inputs": [
        {
          "internalType": "address",
          "name": "nftContract",
          "type": "address"
        },
        {
          "internalType": "uint256",
          "name": "itemId",
          "type": "uint256"
        }
      ],
      "name": "createMarketSale",
      "outputs": [],
      "stateMutability": "payable",
      "type": "function"
    },
    {
      "inputs": [],
      "name": "fetchItemCreated",
      "outputs": [
        {
          "components": [
            {
              "internalType": "uint256",
              "name": "itemId",
              "type": "uint256"
            },
            {
              "internalType": "address",
              "name": "nftContract",
              "type": "address"
            },
            {
              "internalType": "uint256",
              "name": "tokenId",
              "type": "uint256"
            },
            {
              "internalType": "address payable",
              "name": "seller",
              "type": "address"
            },
            {
              "internalType": "address payable",
              "name": "owner",
              "type": "address"
            },
            {
              "internalType": "uint256",
              "name": "price",
              "type": "uint256"
            },
            {
              "internalType": "bool",
              "name": "sold",
              "type": "bool"
            }
          ],
          "internalType": "struct NFTMarketplace.MarketItem[]",
          "name": "",
          "type": "tuple[]"
        }
      ],
      "stateMutability": "view",
      "type": "function"
    },
    {
      "inputs": [],
      "name": "fetchMarketItems",
      "outputs": [
        {
          "components": [
            {
              "internalType": "uint256",
              "name": "itemId",
              "type": "uint256"
            },
            {
              "internalType": "address",
              "name": "nftContract",
              "type": "address"
            },
            {
              "internalType": "uint256",
              "name": "tokenId",
              "type": "uint256"
            },
            {
              "internalType": "address payable",
              "name": "seller",
              "type": "address"
            },
            {
              "internalType": "address payable",
              "name": "owner",
              "type": "address"
            },
            {
              "internalType": "uint256",
              "name": "price",
              "type": "uint256"
            },
            {
              "internalType": "bool",
              "name": "sold",
              "type": "bool"
            }
          ],
          "internalType": "struct NFTMarketplace.MarketItem[]",
          "name": "",
          "type": "tuple[]"
        }
      ],
      "stateMutability": "view",
      "type": "function"
    },
    {
      "inputs": [],
      "name": "fetchMyNfts",
      "outputs": [
        {
          "components": [
            {
              "internalType": "uint256",
              "name": "itemId",
              "type": "uint256"
            },
            {
              "internalType": "address",
              "name": "nftContract",
              "type": "address"
            },
            {
              "internalType": "uint256",
              "name": "tokenId",
              "type": "uint256"
            },
            {
              "internalType": "address payable",
              "name": "seller",
              "type": "address"
            },
            {
              "internalType": "address payable",
              "name": "owner",
              "type": "address"
            },
            {
              "internalType": "uint256",
              "name": "price",
              "type": "uint256"
            },
            {
              "internalType": "bool",
              "name": "sold",
              "type": "bool"
            }
          ],
          "internalType": "struct NFTMarketplace.MarketItem[]",
          "name": "",
          "type": "tuple[]"
        }
      ],
      "stateMutability": "view",
      "type": "function"
    },
    {
      "inputs": [],
      "name": "listingPrice",
      "outputs": [
        {
          "internalType": "uint256",
          "name": "",
          "type": "uint256"
        }
      ],
      "stateMutability": "view",
      "type": "function"
    },
    {
      "inputs": [
        {
          "internalType": "uint256",
          "name": "_listingprice",
          "type": "uint256"
        }
      ],
      "name": "updateListingPrice",
      "outputs": [],
      "stateMutability": "payable",
      "type": "function"
    }
  ],
  "bytecode": {
    "object": "0x608060405266354a6ba7a1800060035534801561001b57600080fd5b506001600055600480546001600160a01b03191633179055610cce806100426000396000f3fe6080604052600436106100705760003560e01c80636d3603391161004e5780636d360339146100ca578063ae677aa3146100df578063c23b139e146100f2578063c78f19f91461010557600080fd5b80630f08efe014610075578063128ae712146100a057806358eb2df5146100b5575b600080fd5b34801561008157600080fd5b5061008a610129565b6040516100979190610ae6565b60405180910390f35b3480156100ac57600080fd5b5061008a6102c7565b6100c86100c3366004610b96565b6104a3565b005b3480156100d657600080fd5b5061008a6106d9565b6100c86100ed366004610bc9565b6108b5565b6100c8610100366004610be2565b6108e5565b34801561011157600080fd5b5061011b60035481565b604051908152602001610097565b6060600061013660015490565b9050600061014360025490565b6001546101509190610c22565b90506000808267ffffffffffffffff81111561016e5761016e610c39565b6040519080825280602002602001820160405280156101a757816020015b610194610aaa565b81526020019060019003908161018c5790505b50905060005b848110156102be5760006005816101c5846001610c4f565b81526020810191909152604001600020600401546001600160a01b031614156102ac5760006005816101f8846001610c4f565b81526020808201929092526040908101600090812054808252600580855291839020835160e0810185528154815260018201546001600160a01b0390811696820196909652600282015494810194909452600381015485166060850152600481015490941660808401529083015460a0830152600683015460ff16151560c0830152855190935085908790811061029157610291610c67565b60209081029190910101526102a7600186610c4f565b945050505b806102b681610c7d565b9150506101ad565b50949350505050565b606060006102d460015490565b905060008060005b838110156103375733600560006102f4846001610c4f565b81526020810191909152604001600020600401546001600160a01b0316141561032557610322600184610c4f565b92505b8061032f81610c7d565b9150506102dc565b5060008267ffffffffffffffff81111561035357610353610c39565b60405190808252806020026020018201604052801561038c57816020015b610379610aaa565b8152602001906001900390816103715790505b50905060005b848110156102be5733600560006103aa846001610c4f565b81526020810191909152604001600020600401546001600160a01b031614156104915760006005816103dd846001610c4f565b81526020808201929092526040908101600090812054808252600580855291839020835160e0810185528154815260018201546001600160a01b0390811696820196909652600282015494810194909452600381015485166060850152600481015490941660808401529083015460a0830152600683015460ff16151560c0830152855190935085908790811061047657610476610c67565b602090810291909101015261048c600186610c4f565b945050505b8061049b81610c7d565b915050610392565b600260005414156104fb5760405162461bcd60e51b815260206004820152601f60248201527f5265656e7472616e637947756172643a207265656e7472616e742063616c6c0060448201526064015b60405180910390fd5b60026000558061051e5760405163ea86949f60e01b815260040160405180910390fd5b60035434146105405760405163d8fc352b60e01b815260040160405180910390fd5b61054e600180546001019055565b600061055960015490565b6040805160e0810182528281526001600160a01b0387811660208084018281528486018a8152336060870181815260006080890181815260a08a018e815260c08b018381528d8452600598899052928c90209a518b55955160018b018054918b166001600160a01b0319928316179055945160028b0155915160038a018054918a1691861691909117905590516004808a01805492909916919094161790965591519286019290925592516006909401805494151560ff199095169490941790935592516323b872dd60e01b81529182015230602482015260448101869052919250906323b872dd90606401600060405180830381600087803b15801561065f57600080fd5b505af1158015610673573d6000803e3d6000fd5b505060408051338152600060208201819052818301879052606082015290518693506001600160a01b038816925084917f045dfa01dcba2b36aba1d3dc4a874f4b0c5d2fbeb8d2c4b34a7d88c8d8f929d1919081900360800190a4505060016000555050565b606060006106e660015490565b905060008060005b83811015610749573360056000610706846001610c4f565b81526020810191909152604001600020600301546001600160a01b0316141561073757610734600184610c4f565b92505b8061074181610c7d565b9150506106ee565b5060008267ffffffffffffffff81111561076557610765610c39565b60405190808252806020026020018201604052801561079e57816020015b61078b610aaa565b8152602001906001900390816107835790505b50905060005b848110156102be5733600560006107bc846001610c4f565b81526020810191909152604001600020600301546001600160a01b031614156108a35760006005816107ef846001610c4f565b81526020808201929092526040908101600090812054808252600580855291839020835160e0810185528154815260018201546001600160a01b0390811696820196909652600282015494810194909452600381015485166060850152600481015490941660808401529083015460a0830152600683015460ff16151560c0830152855190935085908790811061088857610888610c67565b602090810291909101015261089e600186610c4f565b945050505b806108ad81610c7d565b9150506107a4565b6004546001600160a01b031633146108e057604051633670a5d760e21b815260040160405180910390fd5b600355565b600260005414156109385760405162461bcd60e51b815260206004820152601f60248201527f5265656e7472616e637947756172643a207265656e7472616e742063616c6c0060448201526064016104f2565b600260008181558281526005602081905260409091209081015491015434821461097557604051630ea9036f60e31b815260040160405180910390fd5b6000838152600560205260408082206003015490516001600160a01b03909116913480156108fc02929091818181858888f193505050501580156109bd573d6000803e3d6000fd5b506040516323b872dd60e01b8152306004820152336024820152604481018290526001600160a01b038516906323b872dd90606401600060405180830381600087803b158015610a0c57600080fd5b505af1158015610a20573d6000803e3d6000fd5b50505060008481526005602052604090206004810180546001600160a01b03191633179055600601805460ff1916600117905550610a62600280546001019055565b6004546003546040516001600160a01b039092169181156108fc0291906000818181858888f19350505050158015610a9e573d6000803e3d6000fd5b50506001600055505050565b6040805160e081018252600080825260208201819052918101829052606081018290526080810182905260a0810182905260c081019190915290565b602080825282518282018190526000919060409081850190868401855b82811015610b6d57815180518552868101516001600160a01b039081168887015286820151878701526060808301518216908701526080808301519091169086015260a0808201519086015260c09081015115159085015260e09093019290850190600101610b03565b5091979650505050505050565b80356001600160a01b0381168114610b9157600080fd5b919050565b600080600060608486031215610bab57600080fd5b610bb484610b7a565b95602085013595506040909401359392505050565b600060208284031215610bdb57600080fd5b5035919050565b60008060408385031215610bf557600080fd5b610bfe83610b7a565b946020939093013593505050565b634e487b7160e01b600052601160045260246000fd5b600082821015610c3457610c34610c0c565b500390565b634e487b7160e01b600052604160045260246000fd5b60008219821115610c6257610c62610c0c565b500190565b634e487b7160e01b600052603260045260246000fd5b6000600019821415610c9157610c91610c0c565b506001019056fea264697066735822122062394c141ac93072969fd7dc80ec078d394d40bd37793df982d9895b4de7595764736f6c634300080a0033",
    "linkReferences": {}
  }
}