{
  "abi": [
    {
      "inputs": [],
      "stateMutability": "nonpayable",
      "type": "constructor"
    },
    {
      "inputs": [],
      "name": "OnlyOwnerCanUpDatePrice",
      "type": "error"
    },
    {
      "inputs": [],
      "name": "notAskingPrice",
      "type": "error"
    },
    {
      "inputs": [],
      "name": "priceMustBeEqualToListingPrice",
      "type": "error"
    },
    {
      "inputs": [],
      "name": "priceMustBeGreaterThanOneGwei",
      "type": "error"
    },
    {
      "inputs": [],
      "name": "priceMustEqualListingPrice",
      "type": "error"
    },
    {
      "anonymous": false,
      "inputs": [
        {
          "indexed": true,
          "internalType": "uint256",
          "name": "itemId",
          "type": "uint256"
        },
        {
          "indexed": true,
          "internalType": "address",
          "name": "nftContract",
          "type": "address"
        },
        {
          "indexed": true,
          "internalType": "uint256",
          "name": "tokenId",
          "type": "uint256"
        },
        {
          "indexed": false,
          "internalType": "address",
          "name": "seller",
          "type": "address"
        },
        {
          "indexed": false,
          "internalType": "address",
          "name": "owner",
          "type": "address"
        },
        {
          "indexed": false,
          "internalType": "uint256",
          "name": "price",
          "type": "uint256"
        },
        {
          "indexed": false,
          "internalType": "bool",
          "name": "sold",
          "type": "bool"
        }
      ],
      "name": "MarketItemCreated",
      "type": "event"
    },
    {
      "inputs": [
        {
          "internalType": "address",
          "name": "nftContract",
          "type": "address"
        },
        {
          "internalType": "uint256",
          "name": "tokenId",
          "type": "uint256"
        },
        {
          "internalType": "uint256",
          "name": "price",
          "type": "uint256"
        }
      ],
      "name": "createMarketItem",
      "outputs": [],
      "stateMutability": "payable",
      "type": "function"
    },
    {
      "inputs": [
        {
          "internalType": "address",
          "name": "nftContract",
          "type": "address"
        },
        {
          "internalType": "uint256",
          "name": "itemId",
          "type": "uint256"
        }
      ],
      "name": "createMarketSale",
      "outputs": [],
      "stateMutability": "payable",
      "type": "function"
    },
    {
      "inputs": [],
      "name": "fetchItemListed",
      "outputs": [
        {
          "components": [
            {
              "internalType": "uint256",
              "name": "itemId",
              "type": "uint256"
            },
            {
              "internalType": "address",
              "name": "nftContract",
              "type": "address"
            },
            {
              "internalType": "uint256",
              "name": "tokenId",
              "type": "uint256"
            },
            {
              "internalType": "address payable",
              "name": "seller",
              "type": "address"
            },
            {
              "internalType": "address payable",
              "name": "owner",
              "type": "address"
            },
            {
              "internalType": "uint256",
              "name": "price",
              "type": "uint256"
            },
            {
              "internalType": "bool",
              "name": "sold",
              "type": "bool"
            }
          ],
          "internalType": "struct NFTMarketplace.MarketItem[]",
          "name": "",
          "type": "tuple[]"
        }
      ],
      "stateMutability": "view",
      "type": "function"
    },
    {
      "inputs": [],
      "name": "fetchMarketItems",
      "outputs": [
        {
          "components": [
            {
              "internalType": "uint256",
              "name": "itemId",
              "type": "uint256"
            },
            {
              "internalType": "address",
              "name": "nftContract",
              "type": "address"
            },
            {
              "internalType": "uint256",
              "name": "tokenId",
              "type": "uint256"
            },
            {
              "internalType": "address payable",
              "name": "seller",
              "type": "address"
            },
            {
              "internalType": "address payable",
              "name": "owner",
              "type": "address"
            },
            {
              "internalType": "uint256",
              "name": "price",
              "type": "uint256"
            },
            {
              "internalType": "bool",
              "name": "sold",
              "type": "bool"
            }
          ],
          "internalType": "struct NFTMarketplace.MarketItem[]",
          "name": "",
          "type": "tuple[]"
        }
      ],
      "stateMutability": "view",
      "type": "function"
    },
    {
      "inputs": [],
      "name": "fetchMyNfts",
      "outputs": [
        {
          "components": [
            {
              "internalType": "uint256",
              "name": "itemId",
              "type": "uint256"
            },
            {
              "internalType": "address",
              "name": "nftContract",
              "type": "address"
            },
            {
              "internalType": "uint256",
              "name": "tokenId",
              "type": "uint256"
            },
            {
              "internalType": "address payable",
              "name": "seller",
              "type": "address"
            },
            {
              "internalType": "address payable",
              "name": "owner",
              "type": "address"
            },
            {
              "internalType": "uint256",
              "name": "price",
              "type": "uint256"
            },
            {
              "internalType": "bool",
              "name": "sold",
              "type": "bool"
            }
          ],
          "internalType": "struct NFTMarketplace.MarketItem[]",
          "name": "",
          "type": "tuple[]"
        }
      ],
      "stateMutability": "view",
      "type": "function"
    },
    {
      "inputs": [],
      "name": "listingPrice",
      "outputs": [
        {
          "internalType": "uint256",
          "name": "",
          "type": "uint256"
        }
      ],
      "stateMutability": "view",
      "type": "function"
    },
    {
      "inputs": [
        {
          "internalType": "uint256",
          "name": "_listingprice",
          "type": "uint256"
        }
      ],
      "name": "updateListingPrice",
      "outputs": [],
      "stateMutability": "payable",
      "type": "function"
    }
  ],
  "bytecode": {
    "object": "0x608060405266354a6ba7a1800060035534801561001b57600080fd5b506001600055600480546001600160a01b03191633179055610cc9806100426000396000f3fe6080604052600436106100705760003560e01c8063ae677aa31161004e578063ae677aa3146100ca578063c23b139e146100dd578063c78f19f9146100f0578063e17914451461011457600080fd5b80630f08efe014610075578063128ae712146100a057806358eb2df5146100b5575b600080fd5b34801561008157600080fd5b5061008a610129565b6040516100979190610ae3565b60405180910390f35b3480156100ac57600080fd5b5061008a6102c6565b6100c86100c3366004610b93565b6104a0565b005b6100c86100d8366004610bc6565b6106d9565b6100c86100eb366004610bdf565b610709565b3480156100fc57600080fd5b5061010660035481565b604051908152602001610097565b34801561012057600080fd5b5061008a6108cd565b6060600061013660015490565b9050600061014360025490565b6001546101509190610c1f565b90506000808267ffffffffffffffff81111561016e5761016e610c36565b6040519080825280602002602001820160405280156101a757816020015b610194610aa7565b81526020019060019003908161018c5790505b50905060005b848110156102bd5760006005816101c5846001610c4c565b81526020810191909152604001600020600401546001600160a01b0316036102ab5760006005816101f7846001610c4c565b81526020808201929092526040908101600090812054808252600580855291839020835160e0810185528154815260018201546001600160a01b0390811696820196909652600282015494810194909452600381015485166060850152600481015490941660808401529083015460a0830152600683015460ff16151560c0830152855190935085908790811061029057610290610c64565b60209081029190910101526102a6600186610c4c565b945050505b806102b581610c7a565b9150506101ad565b50949350505050565b606060006102d360015490565b905060008060005b838110156103355733600560006102f3846001610c4c565b81526020810191909152604001600020600401546001600160a01b03160361032357610320600184610c4c565b92505b8061032d81610c7a565b9150506102db565b5060008267ffffffffffffffff81111561035157610351610c36565b60405190808252806020026020018201604052801561038a57816020015b610377610aa7565b81526020019060019003908161036f5790505b50905060005b848110156102bd5733600560006103a8846001610c4c565b81526020810191909152604001600020600401546001600160a01b03160361048e5760006005816103da846001610c4c565b81526020808201929092526040908101600090812054808252600580855291839020835160e0810185528154815260018201546001600160a01b0390811696820196909652600282015494810194909452600381015485166060850152600481015490941660808401529083015460a0830152600683015460ff16151560c0830152855190935085908790811061047357610473610c64565b6020908102919091010152610489600186610c4c565b945050505b8061049881610c7a565b915050610390565b6002600054036104f75760405162461bcd60e51b815260206004820152601f60248201527f5265656e7472616e637947756172643a207265656e7472616e742063616c6c0060448201526064015b60405180910390fd5b6002600090815581900361051e5760405163ea86949f60e01b815260040160405180910390fd5b60035434146105405760405163d8fc352b60e01b815260040160405180910390fd5b61054e600180546001019055565b600061055960015490565b6040805160e0810182528281526001600160a01b0387811660208084018281528486018a8152336060870181815260006080890181815260a08a018e815260c08b018381528d8452600598899052928c90209a518b55955160018b018054918b166001600160a01b0319928316179055945160028b0155915160038a018054918a1691861691909117905590516004808a01805492909916919094161790965591519286019290925592516006909401805494151560ff199095169490941790935592516323b872dd60e01b81529182015230602482015260448101869052919250906323b872dd90606401600060405180830381600087803b15801561065f57600080fd5b505af1158015610673573d6000803e3d6000fd5b505060408051338152600060208201819052818301879052606082015290518693506001600160a01b038816925084917f045dfa01dcba2b36aba1d3dc4a874f4b0c5d2fbeb8d2c4b34a7d88c8d8f929d1919081900360800190a4505060016000555050565b6004546001600160a01b0316331461070457604051633670a5d760e21b815260040160405180910390fd5b600355565b60026000540361075b5760405162461bcd60e51b815260206004820152601f60248201527f5265656e7472616e637947756172643a207265656e7472616e742063616c6c0060448201526064016104ee565b600260008181558281526005602081905260409091209081015491015434821461079857604051630ea9036f60e31b815260040160405180910390fd5b6000838152600560205260408082206003015490516001600160a01b03909116913480156108fc02929091818181858888f193505050501580156107e0573d6000803e3d6000fd5b506040516323b872dd60e01b8152306004820152336024820152604481018290526001600160a01b038516906323b872dd90606401600060405180830381600087803b15801561082f57600080fd5b505af1158015610843573d6000803e3d6000fd5b50505060008481526005602052604090206004810180546001600160a01b03191633179055600601805460ff1916600117905550610885600280546001019055565b6004546003546040516001600160a01b039092169181156108fc0291906000818181858888f193505050501580156108c1573d6000803e3d6000fd5b50506001600055505050565b606060006108da60015490565b905060008060005b8381101561093c5733600560006108fa846001610c4c565b81526020810191909152604001600020600301546001600160a01b03160361092a57610927600184610c4c565b92505b8061093481610c7a565b9150506108e2565b5060008267ffffffffffffffff81111561095857610958610c36565b60405190808252806020026020018201604052801561099157816020015b61097e610aa7565b8152602001906001900390816109765790505b50905060005b848110156102bd5733600560006109af846001610c4c565b81526020810191909152604001600020600301546001600160a01b031603610a955760006005816109e1846001610c4c565b81526020808201929092526040908101600090812054808252600580855291839020835160e0810185528154815260018201546001600160a01b0390811696820196909652600282015494810194909452600381015485166060850152600481015490941660808401529083015460a0830152600683015460ff16151560c08301528551909350859087908110610a7a57610a7a610c64565b6020908102919091010152610a90600186610c4c565b945050505b80610a9f81610c7a565b915050610997565b6040805160e081018252600080825260208201819052918101829052606081018290526080810182905260a0810182905260c081019190915290565b602080825282518282018190526000919060409081850190868401855b82811015610b6a57815180518552868101516001600160a01b039081168887015286820151878701526060808301518216908701526080808301519091169086015260a0808201519086015260c09081015115159085015260e09093019290850190600101610b00565b5091979650505050505050565b80356001600160a01b0381168114610b8e57600080fd5b919050565b600080600060608486031215610ba857600080fd5b610bb184610b77565b95602085013595506040909401359392505050565b600060208284031215610bd857600080fd5b5035919050565b60008060408385031215610bf257600080fd5b610bfb83610b77565b946020939093013593505050565b634e487b7160e01b600052601160045260246000fd5b600082821015610c3157610c31610c09565b500390565b634e487b7160e01b600052604160045260246000fd5b60008219821115610c5f57610c5f610c09565b500190565b634e487b7160e01b600052603260045260246000fd5b600060018201610c8c57610c8c610c09565b506001019056fea2646970667358221220fcd06e2737c4232bd8a1a6aeebcae21ee08f0fa6438cca0bc23e3a0846a606a864736f6c634300080f0033",
    "linkReferences": {}
  },
  "methodIdentifiers": {
    "createMarketItem(address,uint256,uint256)": "58eb2df5",
    "createMarketSale(address,uint256)": "c23b139e",
    "fetchItemListed()": "e1791445",
    "fetchMarketItems()": "0f08efe0",
    "fetchMyNfts()": "128ae712",
    "listingPrice()": "c78f19f9",
    "updateListingPrice(uint256)": "ae677aa3"
  },
  "id": 14
}